:020000040008F2
:1000000000200820AD6A0800D10F0800135D080029
:10001000D30F0800D50F0800D70F0800000000001C
:10002000000000000000000000000000D90F0800E0
:10003000DB0F080000000000DD0F08005F5D080016
:10004000DF0F0800E10F0800E30F0800E50F0800CC
:10005000E70F0800E90F0800EB0F0800ED0F08009C
:100060001D270800EF0F08009B5D0800EF5D0800EA
:10007000F10F08003B2708007B1A0800A51A0800AA
:10008000F30F0800F50F08000D380800F70F0800FF
:10009000F90F0800FB0F0800FD0F0800FF0F080014
:1000A00001100800031008000510080007100800E0
:0C00B000091008000B100800CF0F08001A
:1000BC0010B584B001A8DFF820190CC90CC00839A0
:1000CC000838DFF8C80C00788DF806000024DFF83B
:1000DC00940BDFF8941B0860DFF8880BDFF8B01C7A
:1000EC000860DFF8800BDFF8AC1C08600020DFF83C
:1000FC00A81C0870DFF8A40C006800905FF40010D6
:10010C00DFF8D81808605FF40000DFF8301D0860D5
:10011C005FF08070DFF8241D0860642100A800F0F7
:10012C006FFF0028F9D05FF40010DFF8101D086095
:10013C00DFF8680C006800904FF47A7100A800F0AA
:10014C005FFF0028F8D0DFF8540C00680090DFF84F
:10015C00100D0068C00709D4E4B2002C06D14FF48E
:10016C007A7100A800F04CFF0400F0E7E4B2002C18
:10017C0010D100F025F800F033FC01A800F0B5FB1D
:10018C008DF8080001A800F049FA4FF47A713E206E
:10019C0000F00AFB1FBD0020C82801D2401CFBE761
:1001AC005FF08070DFF8341808600020142801D24A
:1001BC00401CFBE75FF08070DFF8801C0860704724
:1001CC00F0B58BB006A8DFF8E81A112200F036FF64
:1001DC0000A8DFF8E01A182200F040FF0027DFF833
:1001EC00800C0068C00740F10B81DFF8CC0A006876
:1001FC0006000020DFF8C41A0860DFF8C40A0068A3
:10020C00C00009D5DFF8B80A006830F08050DFF87C
:10021C00B01A0860761E15E0FFF7BDFFDFF8400C42
:10022C00006840070ED4DFF8940A006842F210719F
:10023C00884207D2DFF8840A0068401CDFF87C1A79
:10024C000860EBE7DFF8740A006842F2117188422B
:10025C0005D300F0D7F806A800F03CFFD0E0DFF89B
:10026C00000C006830F00400DFF8F41B0860DFF8C5
:10027C00200B00680078A42840F08680DFF8400A44
:10028C00006850F08060DFF8381A0860FFF783FFD1
:10029C00DFF8CC0B0068C0070ED5DFF8200A006829
:1002AC0042F21071884207D2DFF8100A0068401C35
:1002BC00DFF8081A0860EBE7DFF8040A006830F092
:1002CC008060DFF8FC190860DFF8940B006830F0F0
:1002DC000400DFF88C1B0860DFF8E009006842F2CC
:1002EC001071884246D2DFF8D0090068861BDFF80F
:1002FC00A00A00680078040000F09AF8DFF8900A71
:10030C0000680078801C0500EDB2A81C864207D05E
:10031C00DFF8AC09006850F00100DFF8A4190860A0
:10032C00DFF86C0A00680078444000F081F86D1E1C
:10033C00EDB2002DF4D1DFF8580A00680078E4B271
:10034C0084420ED1DFF8500A0078401CDFF8481ABE
:10035C000870DFF84C0A0068401CDFF8441A08608B
:10036C001BE0DFF82C0A0068DFF8281A086000F0A0
:10037C0073F812E0DFF8C80A0068401CDFF8C01AF6
:10038C0008600120070008E0DFF8B80A0068401C8C
:10039C00DFF8B01A086001200700FFB2002F2DD043
:1003AC0000A800F097FEDFF8B80A0068C00710D567
:1003BC00DFF80809006842F21071884209D2DFF8B0
:1003CC00FC080068401CDFF8F4180860FFF7E3FE37
:1003DC00E9E7DFF894080068DFF8B4190860DFF883
:1003EC0088080068DFF8AC190860DFF8740A006848
:1003FC0030F00600DFF8681A086001E000F018F829
:10040C000BB0F0BD72B6DFF85C08DFF85C18086062
:10041C00DFF85008DFF878190860DFF84808DFF8D3
:10042C00741908600020DFF87019087062B6704704
:10043C00DFF85C090068401CDFF854190860DFF82D
:10044C0050090068DFF81C1A884204D1DFF8140840
:10045C00DFF83C1908607047DFF838090068401C69
:10046C00DFF830190860DFF82C090068DFF8F419A0
:10047C00884204D1DFF8EC07DFF8181908607047E0
:10048C0038B5DFF8640A0068C00109D5DFF85C0AEA
:10049C0000F020FEDFF8580ADFF8581A0860B6E0C2
:1004AC005FF40010DFF8501A0860DFF8500A00F013
:1004BC0011FE0020DFF8481A08600020DFF8441A0B
:1004CC0008600020DFF8C41808701020DFF8BC1892
:1004DC0048700020DFF8B4188870FF20DFF8AC18E3
:1004EC00C870FF20DFF8A41808710120DFF89C18F1
:1004FC0048711020DFF894188871CD20DFF88C1823
:10050C00C8710C20DFF8841808723720DFF87C18CB
:10051C0048720320DFF8741888720420DFF8E81999
:10052C000870DFF8E809DFF8E01948605FF4800034
:10053C00DFF8D41988600120DFF8CC190873022089
:10054C00DFF8C41948730FF24530DFF8BC190861A5
:10055C000FF25130DFF8B0194861DFF80807DFF807
:10056C00A8198861DFF80007DFF89C19C8614FF4FF
:10057C008070DFF894190884DFF88C0901F012F907
:10058C00DFF88C1908600020DFF8D4180860FFF73A
:10059C008FFDDFF880090078C00617D5DFF87809E1
:1005AC0000F098FDDFF8740900F094FD00F0A4FD54
:1005BC00DFF86C09006830F48030DFF864190860EB
:1005CC000FF2E170DFF82C19086020E0DFF8540915
:1005DC0000F080FD5FF0307004005FF0F0700500FB
:1005EC00DFF844090460DFF844090460DFF84009CF
:1005FC000560DFF818090560DFF838090460DFF8DA
:10060C00380905600FF6B910DFF8E818086031BD3D
:10061C0080B5DFF8E0080068804701BDF0B599B0FF
:10062C000400DFF81809076810A8DFF81419212254
:10063C0000F004FD0AA8DFF80C19152200F0FEFCEE
:10064C0005A8DFF80419122200F0F8FC00A8DFF866
:10065C00FC18112200F0F2FCDFF86406006810F0C0
:10066C00406F04D010A800F035FD00209AE0002067
:10067C00DFF8481608605FF40000DFF860130860CC
:10068C00DFF8DC070068C0070ED4DFF8300600681E
:10069C0042F21071884207D2DFF820060068401C35
:1006AC00DFF818160860EBE7DFF81006006842F276
:1006BC001171884209D35FF40000DFF880170860DD
:1006CC000AA800F007FD00206CE0FFF764FDDFF8DE
:1006DC009007006840070ED4DFF8E005006842F28E
:1006EC001071884207D2DFF8D4050068401CDFF88F
:1006FC00CC150860EBE75FF40000DFF840170860EA
:10070C00DFF8B805006842F21171884204D30AA8D8
:10071C0000F0E0FC002045E0DFF87406006800788B
:10072C000500EDB2A42D09D1DFF89405006850F056
:10073C008050DFF88C150860002033E0FFF778FE5E
:10074C00FFF78AFEDFF81807006830F00400DFF8C6
:10075C0010170860EDB2A52D20D1DFF864050068F4
:10076C0050F00060DFF8581508602078C01C0600B7
:10077C0022003100DFF89807006801F0B7F8DFF8C5
:10078C00D0170860DFF8C8070068002801D00120E6
:10079C0008E005A800F09EFC002003E000A800F093
:1007AC0099FC002019B0F0BDF0B589B004000D0023
:1007BC0000260127DFF884070068009001A8DFF805
:1007CC0094171A2200F03AFCDFF8D005006800906C
:1007DC00DFF88C060068C00709D5F6B2002E06D1EA
:1007EC004FF47A7100A800F00BFC0600F0E7F6B2AB
:1007FC00002E20D1DFF82807006830F00060DFF809
:10080C002017086000F0B1FA0020DFF844170860E8
:10081C00DFF8880500680090DFF844060068C00720
:10082C0009D4F6B2002E06D14FF47A7100A800F06C
:10083C00E7FB0600F0E7F6B2002E1BD1FFF7C0FC79
:10084C00DFF854050078002814D0DFF8480500685C
:10085C00807840280ED1DFF83C0500680079E4B2BE
:10086C00A04207D1DFF82C0500684079002801D19F
:10087C000020070000F0B4F8F6B2002E02D001A858
:10088C0000F028FC3800C0B209B0F0BD80B5DFF82C
:10089C00C8060068401CDFF8C0160860FFF77BFC38
:1008AC0001BD000080B5DFF810040068401CDFF8C3
:1008BC0008140860DFF8B0050068401CDFF8A815C4
:1008CC000860DFF8A4050068DFF89815884204D1A9
:1008DC00DFF89805DFF890150860DFF8440600682B
:1008EC00400101D5FFF757FC01BD10B40100087899
:1008FC00821CA5200023DBB2D2B2934204D20C7826
:10090C006040491C5B1CF6E7C0B210BC70472DE977
:10091C00F0418AB00400002600A8DFF84016282217
:10092C0000F09CFBDFF838060068401CDFF830163E
:10093C0008601C2001F088FB0700002F04D100A8E0
:10094C0000F0C8FB002043E02078C01C050000200C
:10095C00C0B2EDB2A84206D2C0B2015DC0B2C2199B
:10096C001171401CF4E7DFF8340400683860002093
:10097C00B861DFF89005006800280AD1DFF884051B
:10098C000760DFF8E0050068401CDFF8D815086048
:10099C001DE0DFF8700500688046D8F818000028C4
:1009AC0003D0D8F81880761CF7E7F6B2202E09D2BF
:1009BC00C8F81870DFF8AC050068401CDFF8A41507
:1009CC00086004E000A800F085FB002000E0012096
:1009DC000AB0BDE8F0810000B86A0800340E0E4081
:1009EC0030B585B0DFF8B0030078002801D10120C4
:1009FC0036E1DFF878050068401CDFF870150860F8
:100A0C00DFF894030078401EDFF88C130870FFF7B2
:100A1C0023FDDFF88003006800780400E4B2122C98
:100A2C0001DB01201CE10025EDB2E4B2E01C8542A3
:100A3C000ADADFF860030068007800A9EDB26854A8
:100A4C00FFF70AFD6D1CEFE79DF801003E2800F052
:100A5C00E58040280CD04E2800F0D2804F2800F0C2
:100A6C00C280522800F0D9806F2800F0EB80F0E0B3
:100A7C009DF80300012859D09DF8030041282DD082
:100A8C00422826D04B2802D04C2815D034E0DFF871
:100A9C00E00400F01FFBDFF88804006850F400202D
:100AAC00DFF87C140860DFF87804006830F48020EC
:100ABC00DFF86C14086023E0DFF8B80400F00AFBE0
:100ACC00DFF85C04006830F4C010DFF854140860E0
:100ADC0016E0DFF8A40400F0FDFA11E0DFF89C0446
:100AEC0000F0F8FADFF838040068DFF894140840D6
:100AFC00DFF82C14086003E0DFF8880400F0EAFA51
:100B0C009DF80400002804D1DFF80C0400F0E2FA90
:100B1C0068E0DFF8740400F0DDFADFF80404006824
:100B2C0050F00200DFF8F81308605BE09DF8040059
:100B3C0000280AD0022809D003282AD0052830D052
:100B4C0006283AD007283CD044E04BE0DFF83C04C0
:100B5C000078401CDFF834140870DFF8300400789B
:100B6C00002812D1DFF828040078401CDFF820148C
:100B7C000870DFF81C040078002806D1DFF8140494
:100B8C000078401CDFF80C140870022000F06EF89E
:100B9C0028E07E484078102802D1032000F066F847
:100BAC0020E0DFF87C03006850F08070DFF87013F1
:100BBC000860052000F05AF814E0062000F056F802
:100BCC0010E0DFF85C03006830F40020DFF850130D
:100BDC00086007E0DFF84803006850F00400DFF815
:100BEC00401308603BE00DF10301012000F06AF8AE
:100BFC0066484078002802D1002000F037F82EE03B
:100C0C000DF10301012000F05DF8604840780028E8
:100C1C0002D1002000F02AF821E020E00020C0B230
:100C2C000A2808DA00A9C0B241188978BB4AC0B2B8
:100C3C008154401CF3E7B748006850F01000B549E8
:100C4C0008600CE0B648006850F48030B449086085
:100C5C0005E0B348006850F00800B1490860002076
:100C6C0005B030BD9C140020341D00201CB50400C0
:100C7C00FF208DF800008DF80140FF208DF8020058
:100C8C00FF208DF80300FF208DF80400C148007888
:100C9C008DF80500BE4800788DF80600BB4800783A
:100CAC008DF8070000A9022000F00CF813BD00001D
:100CBC00286A0800E0690800201D0020141D00208F
:100CCC00081D00202DE9F0418CB004000D005FF0F0
:100CDC00000800A8B0492B2200F0B0F9142001F054
:100CEC00B3F90600002E04D100A800F0F3F900209F
:100CFC0038E00020C0B2082806DAC0B2415DC0B2AC
:100D0C0082195171401CF5E7244800683060347139
:100D1C00002030617A480068002807D178480660C6
:100D2C0091480068401C904908601AE074480068BB
:100D3C0007003869002803D03F6918F10108F8E76B
:100D4C005FFA88F8B8F1200F06D23E618648006839
:100D5C00401C8549086004E000A800F0BBF90020A5
:100D6C0000E001200CB0BDE8F08110B565480068CA
:100D7C0000280AD063480068040062480068806953
:100D8C0060490860200001F0B7F910BDC81C0020B4
:100D9C00381D00203C1D00204A1E0020BC1D0020D8
:100DAC00501D002070B5012400255D48006800042A
:100DBC0020D07A4800F08EF96D1C0026F6B2042E75
:100DCC0012DA5748006820420BD07548EDB2142156
:100DDC0001FB050000F07EF951480068A043504922
:100DEC0008606400761CE9E74D480068000C0004BC
:100DFC004B490860FFF7F4FD19480068C00704D59B
:100E0C000FF245003B49086016E051480068002885
:100E1C0012D13C48006800280ED03A480068001DEA
:100E2C00FFF7FCFB002807D05E4800685E490860AD
:100E3C000FF23D002F49086070BD0000300E0E40CF
:100E4C00241D0020281D002080B558480068401C37
:100E5C0056490860FFF7B4F955482649086001BDAA
:100E6C00E81D00209C150020341D00209C1400203F
:100E7C0010B53748006801F07FF90400E4B2200097
:100E8C00001F01282ED8FFF770FF002030490860A2
:100E9C002348006830F0006021490860454800682C
:100EAC00C0070BD54048006842F21071884205D249
:100EBC003D480068401C3C490860EFE73E4800682C
:100ECC0042F21171884209D33C4800F003F93948C9
:100EDC000068C00702D5FFF75EF9F8E7344805490A
:100EEC000860FFE710BD0000A41D0020B401002025
:100EFC00CD0F0800101D0020100E0E4038030020EE
:100F0C000C1D0020441D0020E01A0020000E0E4095
:100F1C00301D0020A81D00205C040020D41C0020E3
:100F2C00081D002068020020040C0E40000C0E402E
:100F3C00040E0E40140C0E40140E0E40C01D00206A
:100F4C0054670800F86908003C6A0800506A0800F9
:100F5C002C1D00204C6908001C1D00200467080093
:100F6C00581D0020481D0020401D0020541D00204D
:100F7C00EC030020D8030020B00300202003002045
:100F8C00FEFFE3FFE8020020640400204D1E002059
:100F9C004C1E00204B1E0020D866080028040020A0
:100FAC0020010020BC1D0020181D00204C1D00201D
:100FBC00B10D0800E81D0020141D0020880200203F
:100FCC007047FEE7FEE7FEE7FEE7FEE7FEE7FEE71B
:100FDC00FEE7FEE7FEE7FEE7FEE7FEE7FEE7FEE7DD
:100FEC00FEE7FEE7FEE7FEE7FEE7FEE7FEE7FEE7CD
:100FFC00FEE7FEE7FEE7FEE7FEE7FEE7FEE7FEE7BD
:10100C0010B402000C4800681468A04205D30A48CA
:10101C0000681468001B030007E05FF0FF301468E1
:10102C00001B054C2468201803008B4201D20020C1
:10103C0000E0012010BC7047BC1D002062B38B0780
:10104C0008D0521E11F8013B00F8013B00F024803F
:10105C008B07F6D1830740F0208000BF103A07D3EE
:10106C0030B4B1E83810103AA0E83810F9D230BCDE
:10107C00530724BFB1E80810A0E8081044BF51F88A
:10108C00043B40F8043BD20724BF31F8022B20F874
:10109C00022B44BF0B7803707047083A07D3B1E8B2
:1010AC000810083A40F8043B40F804CBF7D2530739
:1010BC00E4E750F8041B61B150F8042BD30744BF8C
:1010CC00A9F101039A18002342F8043B091FFAD135
:1010DC00EFE7704770B5040025000026287800283B
:1010EC0002D0761C6D1CF9E722003100DFF8F80500
:1010FC00006801F059FA70BD80B5DFF8F005008882
:10110C00ADF8000000AA0221DFF8DC05006801F050
:10111C004BFA01BD2DE9FE43040000250026DFF843
:10112C00D0850020C0B20A2819DAB4FBF8F13031AE
:10113C0000AAC0B2815400A9C0B2415C302901D0D0
:10114C0001210D00EDB2002D00D0761CB4FBF8F19E
:10115C0008FB11440A21B8FBF1F8401CE2E7EDB2A0
:10116C00002D01D101200600F6B2300000F06CFF1A
:10117C008146B9F1000F08D10220DFF8781508700C
:10118C000FF23150DFF870150860092007003000AD
:10119C00C0B2002809D000A9795CC0B210EB0902DA
:1011AC0002F8011C7F1E401EF2E74A46F6B23100DF
:1011BC00DFF83405006801F0F7F9484600F09CFFB1
:1011CC00BDE8F78370B5A4B000A8DFF83015052290
:1011DC00FFF734FF11A8DFF828154822FFF73EFF70
:1011EC000124012502A8DFF81C153C22FFF736FF6D
:1011FC0011A8FFF76FFF0026F6B2062E12DADFF801
:10120C000805006804420AD10020050002A8F6B2C5
:10121C000A2101FB0600FFF75DFFFFF76DFF64007D
:10122C00761CE9E7EDB2002D02D000A8FFF752FFC3
:10123C00FFF762FF24B070BD00B585B0002080B20E
:10124C00802806D20021DFF8C42480B28154401CCF
:10125C00F5E7DFF8B804DFF8B8140860DFF8AC0481
:10126C00DFF8B0140860DFF8B004DFF8B0140860E1
:10127C0002208DF80000DFF894040190DFF894044C
:10128C0002908020ADF802000FF25900039000A8E4
:10129C0001F0D6F8DFF850140860DFF84C04006851
:1012AC00002805D10FF20D40DFF84C14086010E057
:1012BC00DFF86C04FFF70EFFDFF84C04006850F009
:1012CC000400DFF8441408600FF23520DFF828140E
:1012DC00086005B000BD80B5DFF81C0400688047CD
:1012EC0001BD0000DFF82C040068401CDFF824145A
:1012FC000860DFF820040068DFF82814884204D165
:10130C00DFF80804DFF80C140860704710B592B0D1
:10131C000AA8DFF814141922FFF790FE3A208DF872
:10132C00020020208DF803000A208DF824000D20E7
:10133C008DF825000AA8FFF7CDFE0024E4B2082C96
:10134C002CDAE4B20A2C07DBE4B20A2094FBF0F0AE
:10135C0030308DF8000002E030208DF80000E4B24F
:10136C000A2094FBF0F100FB114030308DF80100A5
:10137C000020C0B220280CDADFF8B013E4B251F828
:10138C003410C0B2415C00AAC0B282181171401C6A
:10139C00EFE700A8FFF79EFE641CCFE7FFF7ACFE5B
:1013AC0012B010BD10B584B000A8DFF884131CC9AE
:1013BC001CC00C390C3800A8FFF78CFE1FBD10B5F3
:1013CC0084B000A8DFF86C131CC91CC00C390C3895
:1013DC0000A8FFF77FFEDFF860030078C0070CD58C
:1013EC00DFF85403006840084000DFF84C13086035
:1013FC00DFF84803FFF76EFE0BE0DFF83C030068F4
:10140C0050F00100DFF830130860DFF83403FFF709
:10141C0061FE1FBD10B50400E4B2422C0BD10820B4
:10142C0001F00CFB092001F009FB0A2001F006FB7E
:10143C000B2001F003FBE4B2522C0BD1002001F085
:10144C00FDFA012001F0FAFA022001F0F7FA03206C
:10145C0001F0F4FAE4B2472C0BD1042001F0EEFABF
:10146C00052001F0EBFA062001F0E8FA072001F064
:10147C00E5FA10BD00B589B000A8B2492322FFF7E8
:10148C00DDFD00A8FFF726FEAB480078C00709D5A4
:10149C00A948006840084000A7490860A748FFF722
:1014AC0019FE08E0A448006850F00100A249086049
:1014BC00A348FFF70FFE09B000BD00B587B000A828
:1014CC00A1491B22FFF7BAFD00A8FFF703FE9A48BB
:1014DC000068C00309D59848006830F480309649FC
:1014EC0008609648FFF7F6FD08E09348006850F452
:1014FC008030914908609248FFF7ECFD07B000BDC1
:10150C0038B500248248006882490968884262D054
:10151C00E4B2002C5FD17E480068007805008B484F
:10152C000078012803D12800C0B2FFF773FFEDB299
:10153C002800082802D00D2813D018E0774800683E
:10154C007549884209D075480068401E7349086087
:10155C007F480088401E7E4908807E48FFF7BAFD10
:10156C002BE0012004000FF2810063490860290080
:10157C00C9B25D48006800F0FFFF6848006805705C
:10158C0066480068401C6549086071480088401C2A
:10159C006F490880614800686F4988420DD3EDB2ED
:1015AC000D2D0AD05C485D49086000206849088010
:1015BC006A48FFF78FFD6A49086055480068401C6F
:1015CC005349086052480068564988429AD34F489C
:1015DC004F49086096E762480068002803D06048CD
:1015EC00006800F0C9FD31BD70B501240020050074
:1015FC004948EDB2285C5B49EDB2695C884201D088
:10160C00002004006D1CE4B2002C02D0EDB2042DBD
:10161C00EEDBE4B2002C2ED0002004003E48EDB2EC
:10162C002856303806006D1C76B2002E23D476B2C4
:10163C000A2E20DA0A2000FB06F04B4908703648C7
:10164C00EDB22856303806006D1C76B2002E12D43E
:10165C0076B20A2E0FDA44480078301842490870E6
:10166C0041480078082806DA2B48EDB2285C0D2892
:10167C0001D101200400E4B2002C04D00FF21D00B3
:10168C001D49086005E03948FFF724FD38481A4920
:10169C00086021482149086070BD000080B53448BD
:1016AC001549086021483049097810EBC1004068A1
:1016BC00804701BD80B52048006850F000401E49AD
:1016CC0008602C48FFF706FD0A480078FFF722FD5A
:1016DC00FFF712FD00201E4908800F480F490860D3
:1016EC0023480549086001BD701D0020022D08002B
:1016FC0000CA9A3B501E00206C1D0020F06A0800A6
:10170C00546608009C660800A81D00202C180020B8
:10171C007C1D0020781D0020AC190020801D0020AD
:10172C0070010020AC18002068690800F40100204A
:10173C00946A0800A06A0800681D00208404002038
:10174C007C040020BC680800846908009A0400200E
:10175C00481E002090040020EC190020A802002054
:10176C00741D00206C040020511E00201404002065
:10177C000D15080050030020012110F01F029140AC
:10178C00DFF8502840B2430942F82310704701217A
:10179C0010F01F029140DFF8402840B2430942F894
:1017AC00231070472DE9F04704002078022804D05C
:1017BC0034D3042821D010D330E0DFF82008050002
:1017CC0050200600DFF818080700082080467FF03C
:1017DC00080081461A20824622E0DFF8080805003E
:1017EC0060200600DFF800080700002080465FF04C
:1017FC00FF3081463020824612E0DFF8F00705000A
:10180C0050200600DFF8E80707005FF40020804650
:10181C005FF0FF3081460020824601E0002063E04B
:10182C002869C00201D500205EE0DFF8C807006817
:10183C00012195F9262091400843DFF8B81708607C
:10184C0060686860A068A860207B2873607B687300
:10185C00206968616069A861A069E861E069286233
:10186C00208CA884286950F48010286128680660B0
:10187C00286847602868C0F808802868C0F80C9071
:10188C002868C0F820A0687B01281BD1A0692968B2
:10189C00C1F80001A069401C2968C1F810010120A1
:1018AC002968C1F8040101202968C1F8140100203D
:1018BC00286240F201102968C1F820015FF4002071
:1018CC0029688860687B022803D1DFF82C07296817
:1018DC00886095F9260040B2FFF759FF95F926006C
:1018EC0040B2FFF749FF2800BDE8F087F8B50400C7
:1018FC000D0016003200290014F1280000F058FCED
:10190C000700002F01D1002007E0DFF8F406006883
:10191C00002801D500F087F83800F2BD70B5DFF86B
:10192C00E806DFF8B81608600020DFF8B01648604B
:10193C000020DFF8A81688620020DFF8A016C86126
:10194C000020DFF8981688840020DFF890160862D3
:10195C000020DFF8881608610D20DFF8801681F86A
:10196C002600DFF8A806DFF87C1608600020DFF8F8
:10197C00741648600020DFF86C1688620020DFF8CF
:10198C006416C8610020DFF85C1688840020DFF83C
:10199C00541608620020DFF84C1608610E20DFF8A0
:1019AC00441681F82600DFF86806DFF84016086058
:1019BC000020DFF8381648600020DFF83016886207
:1019CC000020DFF82816C8610020DFF82016888474
:1019DC000020DFF8181608620020DFF810160861E6
:1019EC000F20DFF8081681F82600DFF8F005DFF885
:1019FC00241608608024FF25DFF808662A002100E1
:101A0C00300001F045F90FF20D40DFF8F0150860D9
:101A1C00DFF80406FFF75EFB70BD80B5DFF8DC0570
:101A2C000068804701BD80B5DFF8F005006850F014
:101A3C000100DFF8E8150860DFF8A005DFF8D41521
:101A4C000860DFF8D8050078C0070FD5DFF8AC05C3
:101A5C0000688047DFF8C8050068DFF8C815086023
:101A6C000121DFF8C005FFF7CBFAEAE701BD80B52D
:101A7C00DFF87005DFF8B0150860DFF8B405DFF8A3
:101A8C00AC150860DFF8AC050068401CDFF8A41545
:101A9C00086000F016F801BD80B5DFF85005DFF8DE
:101AAC0088150860DFF89005DFF880150860DFF80E
:101ABC008C050068401CDFF88415086000F001F804
:101ACC0001BD70B5DFF8600500680068406906006C
:101ADC00DFF85405006800680069000338D530034E
:101AEC0036D5DFF8440500684068C06BDFF8381560
:101AFC0009688968084214D1DFF83005006800686D
:101B0C0050F00100DFF8241509680860DFF81C05A7
:101B1C000068006830F00600DFF8101509680860EE
:101B2C0016E0DFF808050068006840084000DFF8A0
:101B3C00FC1409680860DFF8F0040068407B012899
:101B4C0006D10120DFF8E01409680968C1F8040126
:101B5C00DFF8D404006800680069800570D5B00512
:101B6C006ED5DFF8C4040068C06A401EDFF8B814F4
:101B7C000968C862DFF8B004006800688069040076
:101B8C00DFF8A4040068C06A002825D0DFF89804A8
:101B9C000068006B401CDFF8901409680863DFF8DC
:101BAC0088040068006B00780400DFF87C0400688F
:101BBC00007B012803D194FAA4F0000E040020004D
:101BCC00C0B2DFF8641409680968C861DFF858040A
:101BDC0000684069804733E04FF40070DFF8481428
:101BEC0009680968C860DFF840040068006930F4CF
:101BFC000010DFF83414096808610421DFF82804A8
:101C0C000068806A006800F0B9FBDFF81C0400680B
:101C1C00283000F04AFB0120DFF80C140968096831
:101C2C008860DFF808040068006850F00200DFF8F4
:101C3C00FC1309680860DFF8F0030068406980470E
:101C4C00DFF8E403006800680069C00737D5DFF8E7
:101C5C00D803006800684069C00730D5DFF8C803B6
:101C6C00006800688069C0B20400DFF8BC0300683B
:101C7C00007B012803D194FAA4F0000E040020008C
:101C8C00C0B2FF2806D1DFF8B8030068401CDFF8AB
:101C9C00B0130860DFF890030068006A00680470F5
:101CAC00DFF888030068006850F00400DFF87C134C
:101CBC0009680860DFF87003006880698047DFF806
:101CCC006803006800680069000762D5300760D5BA
:101CDC00DFF854030068407B00282BD10421DFF887
:101CEC0048030068806A006800F048FBDFF838039E
:101CFC000068283000F0D9FADFF82C03006800697E
:101D0C0030F48000DFF8201309680861DFF818034D
:101D1C0000688068C4490968496808630220C249A0
:101D2C0009680968C1F820010820BF4909680968D9
:101D3C00C8602EE0BD480068006850F00400BB4944
:101D4C0009680860B84800680068D0F81001401CA9
:101D5C00B54909680968C1F81001B3480068006802
:101D6C00D0F80001B0490968C969AF4A1268928C71
:101D7C005118884207D1AC480068C069AA49096863
:101D8C000968C1F800010120A74909680968C1F870
:101D9C001401A548006800680069C00639D5F00632
:101DAC0037D50421A0480068806A006800F0E6FA84
:101DBC009D480068283000F078FA9B48006800695C
:101DCC0030F400109849096808614FF40070964986
:101DDC0009680968C1F8200110209349096809684D
:101DEC00C8600020050090480068006840698005C4
:101DFC0003D4642D01D26D1CF5E78B480068407B41
:101E0C00002806D1884800688068874909684968B5
:101E1C00086370BD10B57F480068806A002800F028
:101E2C00B5807C480068006910F4C00F40F0AE80AB
:101E3C0078480068407B002806D1764800688068A6
:101E4C00744909684968486372480068806A0830B8
:101E5C006C4988422CD103216E480068806A006866
:101E6C0000F08CFA6B480068006950F480006949F6
:101E7C000968086167480068806A08306549096824
:101E8C000968C1F8000163480068806A40686149CC
:101E9C0009680968C1F8040108205E4909680968E5
:101EAC00886001205B4909680968C1F820016DE070
:101EBC00022158480068806A006800F05FFA5548B3
:101ECC000068006950F400105249096808615148D3
:101EDC000068407B02283BD14E480068806A40680D
:101EEC004C490968C8624B480068806A0830494907
:101EFC000968086347480068006B0078040045488F
:101F0C000068007B012803D194FAA4F0000E0400B1
:101F1C000820404909680968086040203D49096863
:101F2C00096808602000C0B23A4909680968C861AC
:101F3C000120384909680968C8604FF400703549B8
:101F4C0009680968886033480068406980471DE06B
:101F5C0030480068806A08302E4909680968C1F861
:101F6C0008012C480068806A40682A490968096899
:101F7C00C1F80C01102027490968096888604FF4E2
:101F8C008070244909680968C1F82001214800685B
:101F9C0090F826000D2804D015D30F2809D004D3AF
:101FAC0011E010481B49086013E0104819490860FB
:101FBC000FE00A48174908601848006840084000BC
:101FCC001649086005E01F48FFF784F803481149DB
:101FDC00086010BD00E100E080E200E0EC19002098
:101FEC00C0084000201A0020CE184500541A0020CA
:101FFC00FF18410010040E4001000800EC1D0020E9
:10200C00A41D00202C1900200000094000400940AC
:10201C0000800940F81D002080030020F41D0020E2
:10202C00BC1D0020F01D0020FC1D0020001E002007
:10203C00E41D0020041E0020E81D0020081E0020C6
:10204C000C1E00209803002070B5054605F10F000A
:10205C00C408E400C046C046A54232D2082C04D2C3
:10206C00082402E0083000F047F82248026811000A
:10207C000CD1011D0A6802B31368A34238BF111DAD
:10208C00F8D310E01D68A5420DD2191D0B68002B6A
:10209C00F8D11268011D00E0191D0B6893420CD099
:1020AC001D68A542F8D361B10D682A68A2F1080336
:1020BC00A3420AD26A680A600FE000F01DFE0028F5
:1020CC00D0D1C046C046002070BD63190B60121BF6
:1020DC006E685E600B681A602C60096800291DBF71
:1020EC004A68002A091D00210160C046C04605F15E
:1020FC00080070BD001D002000B9704738B5A0F174
:10210C0008042068082833D310F0070F30D1C046DC
:10211C00C0461848416809B18C4203D261604460E2
:10212C0017E019464B680BB1A342FAD30B685D1844
:10213C00AC421BD3A54204D12268D2180A600C46CB
:10214C0007E04A681AB123681B199A420ED36260E1
:10215C004C60616851B1226813198B4206D100237F
:10216C00036008688018206048686060C046C046FC
:10217C0031BD0000001D00200100FF209A4A1368A9
:10218C008B4204D0994B9A4201D00C32F7E7974B13
:10219C009A420BD013791800C0B2042802D0C0B2F6
:1021AC00052803D10023136000231371C0B27047BC
:1021BC002DE9F84F04000D001600AB465FF0000946
:1021CC008B480078102807D18A48006850F001002D
:1021DC0088490860002066E0BBF1000F62D084489B
:1021EC000078401C82490870814800780E2806DB74
:1021FC008048006850F002007E49086005E07D4888
:10220C00006830F002007B4908607B4882469AF8EF
:10221C000000002802D11AF1900AF8E700208AF891
:10222C0000001AF104000700BBF1810F04D38020D9
:10223C008146BBF1800B02E0D946002083466F48F3
:10224C0000683860C7F804900020C7F888000020A8
:10225C007968884205D23178C2191172761C401CFB
:10226C00F6E72068002801D127600AE02068804644
:10227C00D8F88800002802D0D8F88880F8E7C8F889
:10228C0088705E48006800F087F85C480068401C65
:10229C005A4908605948006800289DD101205749C7
:1022AC00086099E73868BDE8F28F0268002A06D109
:1022BC00504A126852F004024E4B1A601FE04E4A0C
:1022CC0011000A1D03689A4204D04D4A914201D074
:1022DC009031F6E74A4A914206D1464A126852F0CA
:1022EC000802444B1A600AE00268D2F888200260A7
:1022FC0001220A703E4A1278521E3D4B1A707047EA
:10230C0000203B49087001203C490860002080B245
:10231C00102808DA0121384A80B2902303FB0022EE
:10232C001170401CF3E7002080B2402816DA00211F
:10233C002D4A80B20C2303FB0022116000212A4A93
:10234C0080B20C2303FB002211710021264A80B2BB
:10235C000C2303FB00229160401CE5E7224829492D
:10236C0008600020234908600FF2610026490860CC
:10237C00704780B524480068804701BD1A4A13682D
:10238C00834204D0194B9A4201D00C32F7E7174B19
:10239C009A4200D0117170471A49096808600121EE
:1023AC00184A1268117119490968164A1268916025
:1023BC00144909680C31134A1160124909680B4A17
:1023CC00914202D108490F4A1160704710480068C9
:1023DC00401E0F4908600E480068002803D14FF4D6
:1023EC007A700B49086070479C1100209C140020E7
:1023FC00551E0020AC1D00209C040020B41D0020A4
:10240C009C0D0020B81D0020B01D0020BC1D00201C
:10241C0094040020012110F01F029140DFF8FC24ED
:10242C0040B2430942F823107047012110F01F02FB
:10243C009140DFF8EC2440B2430942F82310704776
:10244C002DE9F04704002078012806D046D3032854
:10245C0023D012D3042830D040E0DFF8C8040500A4
:10246C0050200600DFF8C0040700002080465FF013
:10247C00FF3081461A20824632E0DFF8B0040500B6
:10248C0050200600DFF8A0040700082080467FF0EB
:10249C00080081461A20824622E0DFF894040500E9
:1024AC0060200600DFF88C040700002080465FF0F7
:1024BC00FF3081463020824612E0DFF87C040500B4
:1024CC0050200600DFF8740407005FF400208046FB
:1024DC005FF0FF3081460020824601E0002049E099
:1024EC002879C00701D5002044E0DFF854040068C7
:1024FC00012195F9222091400843DFF8441408602B
:10250C006068686160882884A068A861E068E861F8
:10251C00686850F0010068602868066028684760A9
:10252C002868C0F808802868C0F80C902868C0F8A3
:10253C0020A060682968C1F800016068401C296807
:10254C00C1F8100101202968C1F804010120296893
:10255C00C1F8140140F201102968C1F8200195F965
:10256C00220040B2FFF761FF95F9220040B2FFF75D
:10257C0051FF2800BDE8F08770B582B004000D0053
:10258C008DF8005000AA012114F10800FFF710FE8D
:10259C000600002E06D0DFF8B0030068002801D535
:1025AC0000F09BF8300076BDF8B504000D00160065
:1025BC003200290014F10800FFF7FAFD0700002F84
:1025CC0006D0DFF884030068002801D500F085F8F8
:1025DC003800F2BD0020DFF874130860DFF87003D8
:1025EC00DFF8401308600020DFF838138860002003
:1025FC00DFF8301348610020DFF82813088400202E
:10260C00DFF8201388610020DFF8181348600820D9
:10261C00DFF8101381F82200DFF83803DFF80C1311
:10262C0008600020DFF8041388600020DFF8FC123B
:10263C0048610020DFF8F41208840020DFF8EC1267
:10264C0088610020DFF8E41248600D20DFF8DC120E
:10265C0081F82200DFF80003DFF8D41208600020B4
:10266C00DFF8CC1288600020DFF8C412486100202B
:10267C00DFF8BC1208840020DFF8B4128861002057
:10268C00DFF8AC1248600E20DFF8A41281F82200AB
:10269C00DFF8C802DFF8A01208600020A6498860A5
:1026AC000020A54948610020A34908840020A249C4
:1026BC0088610020A04948600F209F4981F82200C2
:1026CC009848A74908600FF27D109E490860704732
:1026DC0080B59C480068804701BD80B59B48006868
:1026EC0050F00100994908608E489D490860974850
:1026FC000078C0070BD5934800688047994800685C
:10270C009949086001219848FEF77AFCEFE701BD72
:10271C0080B5844895490860954896490860964864
:10272C000068401C9449086000F010F801BD80B5A9
:10273C007E488E49086091488E4908609048006830
:10274C00401C8F49086000F001F801BD80B5874836
:10275C00006800680069000738D584480068006884
:10276C004069000732D583480068006850F00200C9
:10277C008049096808607D4800680068D0F810013D
:10278C00401C7A4909680968C1F81001774800684B
:10279C000068D0F81001754909684969734A1268D4
:1027AC00128C5118884207D17048006840696F49F3
:1027BC0009680968C1F810016C480068C069804755
:1027CC0001206A4909680968C1F814016748006862
:1027DC0000680069C00632D564480068006840692A
:1027EC00C0062CD504216148006880680068FFF79A
:1027FC00C5FD5E4800680830FFF757FD5B48006870
:10280C00406830F400105949096848604FF4007072
:10281C00564909680968C1F8200110205349096814
:10282C000968C86057480078002805D055480078DA
:10283C00401E5449087002E05348FEF74BFC01BDA2
:10284C000000000080B5464800688068002836D03B
:10285C00434800684068800231D402214048006837
:10286C0080680068FFF78AFD3D480068406850F4B6
:10287C0000103B4909684860394800688068083096
:10288C00374909680968C1F808013548006880684B
:10289C004068334909680968C1F80C0110203049B7
:1028AC0009680968886037480078401C3549087009
:1028BC004FF480702A4909680968C1F8200128483A
:1028CC00006890F82200082806D00D2808D00E28A1
:1028DC000AD00F280CD01DE01448214908601CE0D8
:1028EC0013481F49086018E013481D49086014E09C
:1028FC000C481B49086014480068002809D5214879
:10290C000078002805D111480068400840000F49A4
:10291C00086002E003481249086001BD00E100E0D4
:10292C0080E200E0281B0020C00840004C1B002067
:10293C00701B0020CE184500941B0020FF1841008E
:10294C0010040E40181E0020A41D0020201E002084
:10295C0000060E400000094000400940008009407C
:10296C00241E0020BC1D00201C1E0020281E002040
:10297C00101E00202C1E0020301E0020141E0020D3
:10298C00341E0020591E00202C69080010B4B84ACF
:10299C00C0B20A2303FB0022D279012A0AD1B54A1C
:1029AC00B34BC0B20A2404FB00331B7A12EB830234
:1029BC00110009E0B04AAE4BC0B20A2404FB00334C
:1029CC001B7A12EB83021100AC4AC0B252F82020E1
:1029DC000A600022A64BC0B20A2404FB00331A7012
:1029EC0010BC704710B4A24AC0B20A2303FB0022E9
:1029FC00D279012A0AD1A04A9D4BC0B20A2404FB09
:102A0C0000331B7A12EB8302110009E0994A984BB0
:102A1C00C0B20A2404FB00331B7A12EB83021100B0
:102A2C00964AC0B252F820200A600022904BC0B2E5
:102A3C000A2404FB00331A7010BC704790498C4A6E
:102A4C00C0B20A2303FB0022127A11EB82010A683E
:102A5C008A4BC0B253F820305A400A6070472DE9B7
:102A6C00F04182B04FF47A644FF4FA75601B142174
:102A7C00B0FBF1F61427FFB2002F30D05FF028081E
:102A8C001FFA88F8B8F1000F0DD07E48006800904E
:102A9C00012100A8FEF7B4FA0028F9D000F035F8AF
:102AAC00B8F10108ECE7FFB2142F06D140F2DC516B
:102ABC0000A8FEF7A5FA0028F8D00020C0B20D2817
:102ACC0009DAFFB2791E6A4AC0B20A2303FB00225C
:102ADC005180401CF2E7A41B75197F1ECBE700F058
:102AEC0014F8C82100A8FEF78BFA0028F9D00C20A6
:102AFC00FFF74CFF6448006850F001006249086021
:102B0C006248FEF7E7FABDE8F38110B50024E4B2A1
:102B1C000D2C80F2AA805648E4B20A2101FB040075
:102B2C000078012872D15248E4B20A2101FB04005A
:102B3C00B0F90200002804D12000C0B2FFF752FF08
:102B4C005CE04B48E4B20A2101FB0400B0F902003E
:102B5C00142804D12000C0B2FFF718FF4EE04448FF
:102B6C00E4B20A2101FB04008088401E4049E4B213
:102B7C000A2202FB041188803D48E4B20A2101FBC1
:102B8C0004008088002839D13948E4B20A2101FBBD
:102B9C000400807901281AD12000C0B2FFF722FF6F
:102BAC003348E4B20A2101FB0400B0F90200D0F171
:102BBC0014002F49E4B20A2202FB04118880002081
:102BCC002B49E4B20A2202FB0411887116E02000A2
:102BDC00C0B2FFF7DBFE2648E4B20A2101FB040079
:102BEC0040882349E4B20A2202FB041188800120A8
:102BFC001F49E4B20A2202FB0411887101201C490E
:102C0C00E4B20A2202FB041108702CE01848E4B26A
:102C1C000A2101FB04000078022824D11448E4B2F4
:102C2C000A2101FB04008088401E1149E4B20A22EB
:102C3C0002FB041188800E48E4B20A2101FB040057
:102C4C00808800280FD12000C0B2FFF7F7FE08489B
:102C5C00E4B20A2101FB040040880549E4B20A22CF
:102C6C0002FB04118880641C51E710BD00000000B9
:102C7C009C000020300C0E40340C0E40340200201E
:102C8C00380C0E40BC1D0020A81D0020680300203D
:102C9C0062F30F2262F31F42401810F0030308D0B6
:102CAC00C91A1FD3DB0748BF00F8012D28BF20F835
:102CBC00022D130030B414461546103928BF20E9F4
:102CCC003C00FAD8490728BF20E90C0048BF40F85F
:102CDC00042D890028BF20F8022D48BF00F8012DD3
:102CEC0030BC7047C91818BF00F8012DCB0728BF9E
:102CFC0000F8012D70470A0D0749086808B100203B
:102D0C0070470648C008C00008600549C908C900DA
:102D1C00091A0160704700BF3C1E0020671E00208E
:102D2C00603E0020F0B583B004000D001600308822
:102D3C00ADF800007088ADF80200EDB2002D08D19E
:102D4C00062007000720ADF804000520ADF80600AA
:102D5C0007E00B2007000E20ADF804000A20ADF8A8
:102D6C0006002078002824D0BDF80200802820DA44
:102D7C00EDB2002D0AD100A9DFF8FC072278072359
:102D8C0003FB0200E03800F015F80AE000A9DFF8B8
:102D9C00EC0722781C2303FB0200B0F5A86000F0BE
:102DAC0009F8BDF80200FFB23818ADF80200641C37
:102DBC00D7E7F7BD2DE9F84F04000D00288840280F
:102DCC0080F2AF806888802880F2AB80A8888DF86C
:102DDC00000028889DF800100818412804DB28887A
:102DEC00D0F140008DF80000E888834668881FFA0F
:102DFC008BFB1BEB0000812803DB6888D0F1800083
:102E0C00834600219DF8000089B280B2814280F097
:102E1C008580012006000020804601206A88082356
:102E2C0092FBF3FC0CFB132C10FA0CF007006888D7
:102E3C00082290FBF2F08146002292B21FFA8BFB23
:102E4C005A4569D2E888082390FBF3FC0CFB130C61
:102E5C00BCF1000F0AD189B2E888082390FBF3F08B
:102E6C001FFA88F800FB018082460AE089B2E888E4
:102E7C00082390FBF3F0401C1FFA88F800FB01803C
:102E8C0082461FFA8AFA1AF80400304219D0DFF889
:102E9C00F00689B22B885B1810EB03101FFA89F926
:102EAC00DFF8DC3689B2B5F800C01CEB010C13EB73
:102EBC000C131FFA89F919F803303B4309F8003059
:102ECC0018E0DFF8BC0689B22B885B1810EB0310F6
:102EDC001FFA89F9DFF8A83689B2B5F800C01CEBE7
:102EEC00010C13EB0C131FFA89F919F80330BB43CF
:102EFC0009F800307600F6B2002E03D1012006004E
:102F0C0018F101087F00FFB2002F03D10120070048
:102F1C0019F10109521C90E7491C73E7280000F0D5
:102F2C003DFABDE8F18F2DE9F0410400A0880700BF
:102F3C002088FFB23818412803DB2088D0F14000EC
:102F4C000700E088804660881FFA88F818EB0000BC
:102F5C00812803DB6088D0F180008046208880B215
:102F6C002188FFB2791888422EDA6188082291FBF9
:102F7C00F2F10E0001216288082392FBF3FC0CFB9A
:102F8C00132C11FA0CF10D00002189B21FFA88F8EC
:102F9C00414517D2DFF8E82580B212EB0012B6B229
:102FAC00DFF8DC3580B213EB0013B6B2F35CAB4345
:102FBC00B3546D00EDB2002D02D101221500761C28
:102FCC00491CE2E7401CCAE7200000F0E7F9BDE825
:102FDC00F08180B5002080B240280FDA002189B240
:102FEC00102909DADFF8982580B212EB001289B2A9
:102FFC0000238B54491CF2E7401CECE7DFF88405F6
:10300C0000F0CCF901BD10B50400DFF87C050078A8
:10301C00C00722D4DFF87005006850F00100DFF81B
:10302C0068150860DFF8640504704FF40040DFF8A1
:10303C0060150860DFF854250121DFF85805006899
:10304C00FEF754FCDFF8501508600020DFF84C1533
:10305C00086000F0E7F8012000E0002010BD3EB54C
:10306C000C20FFF793FCDFF838050068DFF82C150F
:10307C0008600FF2C930DFF82C150860DFF828055E
:10308C00DFF8281508600320DFF824150870DFF836
:10309C002405DFF81C1548604FF48050DFF810153C
:1030AC008860DFF80405DFF808158861DFF8FC0498
:1030BC00DFF8FC14C8610120DFF8F4140884002048
:1030CC00DFF8EC1408730020DFF8E4144873DFF821
:1030DC00E004FEF767FBDFF8BC1408604FF4805087
:1030EC00DFF8AC1408604FF48040DFF8CC140860B3
:1030FC0000200A2801D2401CFBE74FF48040DFF887
:10310C0090140860DFF898040068DFF8B0140860C9
:10311C000221DFF8A804FDF773FF0028F8D04FF464
:10312C008040DFF894140860DFF874040068DFF85E
:10313C008C1408600221DFF88404FDF761FF00287D
:10314C00F8D00B2004000025EDB2E4B2A54214D255
:10315C00DFF86C04EDB2285CFFF755FFDFF8400494
:10316C000068DFF8581408600521DFF85004FDF7FB
:10317C0047FF0028F8D06D1CE6E7DFF80804FFF7DE
:10318C00D2FE00F04FF8DFF818040068DFF82C14BA
:10319C0008604FF4FA71DFF82404FDF731FF0028C2
:1031AC00F7D0A420FFF72FFFDFF8D803FFF7BBFE03
:1031BC000020ADF804002820ADF806003220ADF850
:1031CC0008003220ADF80A0001A9DFF8F803FFF778
:1031DC00F1FDDFF8F40300F00FFA06214843400834
:1031EC00D0F14000ADF802003820ADF8000000AA84
:1031FC000021DFF8D403FFF795FD00F013F8DFF89A
:10320C00CC03006850F00800DFF8C0130860DFF84A
:10321C00C003FDF75FFF37BD80B5DFF8880300689A
:10322C00804701BD80B5DFF8AC03006800281FD5CE
:10323C000020DFF868130860DFF84C03006850F0DA
:10324C008050DFF844130860DFF83C030068C000CE
:10325C000ED5DFF8500300688047DFF844030068A0
:10326C000090012100A8FDF7CBFE0028ECD1F8E777
:10327C0001BD38B50400DFF860034088D0F1800050
:10328C00DFF85413C988451ABF480078C00721D409
:10329C0054F0B000BD490870C5F3031050F0100095
:1032AC00BA49487015F00F00B84988704FF40040C7
:1032BC00B7490860B448006850F00100B249086092
:1032CC00B24A0321B3480068FEF710FBB24908600C
:1032DC00012000E0002032BD2DE9F0470400AB488E
:1032EC000600BD484088BC49C9880818401E082102
:1032FC0090FBF1F007000120B7494988B64AD28803
:10330C005118491E082291FBF2F303FB121398404B
:10331C008146E4B2A4B2E000050001208046002101
:10332C00AD48C08889B2814229D200208246002251
:10333C00D2B2082A12DA9248ADB2D2B2531910EBBB
:10334C000310FFB2385C10EA090F05D05FFA88F859
:10335C0018FA02F050EA0A0A521CE9E786F800A0B3
:10336C00761C5FFA89F95FEA59095FFA89F9B9F1B4
:10337C00000F02D1802081467F1E491CD0E74FF4FC
:10338C0000408D490860814A9348C1888148006893
:10339C00FEF7ACFA80490860BDE8F0878F4A928846
:1033AC00002A0CD142888D4B5A8002888B4B1A8094
:1033BC00C2888A4BDA808288884B9A803BE04288AC
:1033CC00864B5B889A4202D24288844B5A80028890
:1033DC00824B1B889A4202D20288804B1A80B0F929
:1033EC000020B0F904309A187C4BB3F90030D21A93
:1033FC007A4BB3F90430D21A110009B2012904DB5B
:10340C00764A92888A18754B9A80B0F90220B0F9E6
:10341C0006309A18714BB3F90230D21A6F4BB3F9CC
:10342C000630D21A110009B2012904DB6B4AD2888A
:10343C008A186A4BDA8070470000000080B5524849
:10344C000078C0070BD5564800685C490860644892
:10345C00644908600FF2AD005249086051E019212F
:10346C004E48FDF7CDFD002845D04D4800684B492E
:10347C0008605A488088002843D0584880885649AC
:10348C0088805648C0885449C8805448008852499E
:10349C000880524840885049488000204F49888015
:1034AC0000204E49C88000204C49088000204B4920
:1034BC00488049480088484989880818401E0821D6
:1034CC0090FBF1F044490988082291FBF2F1401A73
:1034DC00401C4549087040480088082190FBF1F0D9
:1034EC004249087041480078FFF7C3FE0FF21500FF
:1034FC002C49086005E02448006830F080502249CF
:10350C00086001BD80B524480068FEF735FE04282C
:10351C0031D135480078002820D01B480078C007EE
:10352C0014D51948006840084000174908602F4816
:10353C000078FFF7D1FE2D480078401C2B4908700D
:10354C0029480078401E2849087003E02748007875
:10355C00FFF78FFE26482349086008E00A480068F8
:10356C0024490840084908601D481E4908601D4848
:10357C0000680C49086001BD005A0800846408000A
:10358C009C0D002074040020881D0020AC18002025
:10359C00340E0E409C1D0020981D0020901D002014
:1035AC00BC1D0020841D0020541E0020A01D0020E6
:1035BC00041B0020000E0E40300E0E408C1D00200F
:1035CC0050040020DC61080044040020A81D0020E9
:1035DC0038040020A41D0020F81C0020F01C002042
:1035EC0049340800941D0020521E0020531E002058
:1035FC0011350800FEFFFFEF00F10103810704D035
:10360C0010F8011B89B18107FAD10268B2F10131BE
:10361C00914311F0803F04BF50F8042FF6E710F8E7
:10362C00011B11B110F8011BFBE7C01A70472000F9
:10363C00012110F01F029140DFF8A42540B243098C
:10364C0042F823107047012110F01F029140DFF85F
:10365C00942540B2430942F82310704710B5122448
:10366C00DFF8940500680121A1400843DFF88815B4
:10367C0008600020DFF884150860DFF88405DFF8A7
:10368C006C1508600020DFF86C1508700020DFF85E
:10369C00741508700020DFF850150870DFF8680505
:1036AC00DFF85C1508600020DFF854154860002036
:1036BC00DFF84C1588600020DFF84415C860DFF88F
:1036CC002C0500680068006850F08000DFF81C15BD
:1036DC00096809680860DFF834050068DFF8301500
:1036EC0008600521DFF82805FDF78AFC0028F8D0D2
:1036FC00DFF82005DFF8F414096809680861242054
:10370C00DFF8E8140968096808600020DFF8DC14A9
:10371C000968096848604FF4A170DFF8D014096893
:10372C00096848624FF63560DFF8C014096809680B
:10373C008862200040B2FFF786FF200040B2FFF7FE
:10374C0077FF0020DFF8D01408600020DFF8CC14DD
:10375C0008600FF26910DFF8C814086010BD80B55E
:10376C00DFF8BC040068804701BD0120C0B200280E
:10377C001DD0DFF8A4140968002918D0DFF89C14B8
:10378C0009680978DFF86424126812685163DFF85D
:10379C008C140968491CDFF884241160DFF8781454
:1037AC000968491EDFF870241160401EDEE7DFF85F
:1037BC006814096800291CD10421DFF83024126830
:1037CC0012689162DFF82814DFF83824127811EBB4
:1037DC000211897A002912D1DFF8101409680968DE
:1037EC00096851F00201DFF80424126812681160B4
:1037FC0005E00421DFF8F423126812685162704767
:10380C0010B5DFF8200400680400DFF81C04006821
:10381C000440E00508D5DFF8E403006850F0807040
:10382C00DFF8D813086046E0A00731D5DFF8BC03F9
:10383C000068007B00072BD5DFF8B0030068006838
:10384C00006BDFF8A813096889680870DFF89C031F
:10385C0000688068401CDFF8941309688860DFF802
:10386C00B8030068401EDFF8B0130860DFF8A80347
:10387C00006801281FD1DFF8740300680068006835
:10388C0050F00200DFF8641309680968086012E060
:10389C00600708D5DFF854030068007B800702D569
:1038AC00FFF763FF07E0DFF85403006850F0007087
:1038BC00DFF84813086010BD0000000080B5DFF889
:1038CC0034030078DFF83C130978884200F09680C6
:1038DC000020DFF818130968096848602420DFF815
:1038EC000C13096809680860DFF80403DFF8141387
:1038FC0009780901085C002832D1BC4800680068CE
:10390C004068BB49DFF8FC22127811EB0211097AEE
:10391C0050EA0140B549096809684860B348006835
:10392C0040684068BC490860B0480068406808308E
:10393C00BA490860FFF719FF0221AC4800684068DB
:10394C000068FEF71BFDA9480068C06850F006002F
:10395C00A6490968C8600FF2A900B149086044E0A3
:10396C00A348A84909780901085C01283DD19F4862
:10397C000068006840689D490968096848609C486F
:10398C00A049097810EB01104068A34908609848D9
:10399C009C49097810EB0110C0689449096888604B
:1039AC009D48006801280AD19048006800680068AA
:1039BC0050F003008D4909680968086009E08B48DC
:1039CC0000680068006850F00100884909680968BF
:1039DC00086086480068C06850F008008349096890
:1039EC00C8600FF2F1008E4908608448006810F03E
:1039FC007F4F03D00FF255108949086001BD0000BC
:103A0C0080B57B487F49097810EB0110807A00283B
:103A1C0018D181480068002826D1744800680068D5
:103A2C00006A400720D5714800680068006AC0072A
:103A3C001AD56E480068C06830F006006B490968FA
:103A4C00C86011E07448006800280DD16748006810
:103A5C000068006A400707D564480068C06830F009
:103A6C00020062490968C86060480068007B8007F2
:103A7C0025D404215D48006840680068FEF77EFC90
:103A8C005A480068001DFEF710FC5C4800684008AE
:103A9C0040005A49086065486149086059480078F7
:103AAC00401C5849087050480078401E4E49087018
:103ABC0054480078102802D10020524908704F4811
:103ACC00006810F07F4F03D00FF28100544908605A
:103ADC0001BD00005048006800282DD14348006803
:103AEC000068006A800727D5404800680068006AB3
:103AFC00C00721D53D480068C06830F008003B493C
:103B0C000968C8603D480068400840003B490860AF
:103B1C004648434908603B480078401C39490870C6
:103B2C0031480078401E304908703648007810281B
:103B3C0002D10020334908703048006810F07F4FE4
:103B4C0003D00FF2090036490860704780B52B4846
:103B5C000068C0013AD526482649097810EB0110B7
:103B6C00407A401C2249234A127811EB0211487208
:103B7C001F482049097810EB0110407A032821D105
:103B8C0020480078401C1F49087017480078401ED8
:103B9C00154908701B480078102802D100201949DB
:103BAC00087012480068007B80070BD506210F486F
:103BBC00006840680068FEF7E1FB0C480068001DD7
:103BCC00FEF773FB002009490968C8600B480068C0
:103BDC000002000A0949086014481149086001BD37
:103BEC0000E100E080E200E0581E0020D81D00201B
:103BFC009C150020561E002010040E40D41D0020E1
:103C0C00B81C0020571E002000400840BC1D00209E
:103C1C00D01D00201D1D0200DC1D0020E01D002019
:103C2C00CC1D00202C40084020400840C93808001A
:103C3C0000B587B0DFF848050088ADF80000DFF864
:103C4C004405007816280EDA00A9DFF83C0500F0D0
:103C5C00D2FADFF838050068069006AA0021DFF8D2
:103C6C002805FFF75FF8DFF81C050078162813DB32
:103C7C00DFF8100500782B280EDA00A9DFF8100504
:103C8C0000F0B9FADFF80C050068059005AA0021D0
:103C9C00DFF8FC04FFF746F8DFF8E80400782B287F
:103CAC0013DBDFF8E004007840280EDA00A9DFF817
:103CBC00E80400F0A0FADFF8E4040068049004AA19
:103CCC000021DFF8D404FFF72DF8DFF8B8040078F2
:103CDC00402813DBDFF8AC04007855280EDA00A975
:103CEC00DFF8BC0400F087FADFF8B8040068039032
:103CFC0003AA0021DFF8A804FFF714F8DFF8840406
:103D0C000078552813DBDFF87C0400786A280EDA7B
:103D1C0000A9DFF8940400F06EFADFF89004006854
:103D2C00029002AA0021DFF88004FEF7FBFFDFF807
:103D3C00540400786A2813DBDFF8480400787F28E5
:103D4C000EDA00A9DFF8680400F055FADFF8640415
:103D5C000068019001AA0021DFF85404FEF7E2FF8D
:103D6C00DFF820040078401CDFF81814087007B046
:103D7C0000BD2DE9F04389B004000D005FF0000890
:103D8C00EDB2022095FBF0F6DFF8F8030078401C4A
:103D9C00DFF8F0130870002701A80021002206C0EC
:103DAC0008380020ADF80000002080465FFA88F843
:103DBC00F6B2B0451ED25FFA88F85FEA480014EB01
:103DCC00800040685FFA88F854F83810401A0700F1
:103DDC00F42F06D2642001A95FFA88F808F80100D4
:103DEC0005E06D2001A95FFA88F808F8010018F1C8
:103DFC000108DBE7002001A95FFA88F808F8010048
:103E0C00DFF88003007816282ADA5FF00009B9F190
:103E1C001A0F1BDADFF8A003062101FB090101A828
:103E2C0000F0F8F900280ED1DFF8900319F8000023
:103E3C008DF8000000208DF8010000A9DFF8480380
:103E4C0000F0D9F902E019F10109E0E7DFF870039D
:103E5C000068089008AA0021DFF82C03FEF762FF27
:103E6C00DFF82003007816282CDBDFF81803007825
:103E7C002B2827DA5FF00009B9F11A0F1ADADFF8EC
:103E8C003803062101FB090101A800F0C3F9002841
:103E9C000DD1DFF8280319F800008DF80000002080
:103EAC008DF8010000A9BA4800F0A5F902E019F15B
:103EBC000109E1E7C3480068079007AA0021B4484C
:103ECC00FEF730FFAF4800782B2829DBAD4800788F
:103EDC00402825DA5FF00009B9F11A0F18DAB64854
:103EEC00062101FB090101A800F094F900280CD16E
:103EFC00B24819F800008DF8000000208DF8010080
:103F0C0000A9A54800F077F902E019F10109E3E7EF
:103F1C00AD480068069006AA00219F48FEF702FFF4
:103F2C0098480078402829DB96480078552825DAEF
:103F3C005FF00009B9F11A0F18DA9F48062101FB4E
:103F4C00090101A800F066F900280CD19B4819F86A
:103F5C0000008DF8000000208DF8010000A99048A9
:103F6C0000F049F902E019F10109E3E7974800680C
:103F7C00059005AA00218A48FEF7D4FE81480078F6
:103F8C00552829DB7F4800786A2825DA5FF000097C
:103F9C00B9F11A0F18DA8848062101FB090101A8AA
:103FAC0000F038F900280CD1844819F800008DF87D
:103FBC00000000208DF8010000A97B4800F01BF9DF
:103FCC0002E019F10109E3E781480068049004AAB2
:103FDC0000217548FEF7A6FE6A4800786A2829DB9E
:103FEC00684800787F2825DA5FF00009B9F11A0FCC
:103FFC0018DA7148062101FB090101A800F00AF941
:10400C0000280CD16D4819F800008DF80000002034
:10401C008DF8010000A9664800F0EDF802E019F1F6
:10402C000109E3E76B480068039003AA002160488C
:10403C00FEF778FE09B0BDE8F08380B50020664934
:10404C00087034206449C87012206349087101203B
:10405C006149487101206049887100205E49C8712E
:10406C0020205D49087232205B49487203205A496E
:10407C008872FEF7AEFF4FF4FA71012000F018FAC7
:10408C00012000F0EFFA002806D000F0C0FB0FF280
:10409C0025005249086003E00FF259104F4908609F
:1040AC000FF211004D49086001BD80B54B48006806
:1040BC00804701BD80B5012000F0F7FB002804D03B
:1040CC00FFF7B6FD012000F0F9FB002000F0E4FB47
:1040DC00002818D042480078002814D1012000F0A4
:1040EC0000FA404800684049404A127841F82200E2
:1040FC0001203B49087001203D4908703B4800787D
:10410C00401C3A490870002000F0C6FB002815D16D
:10411C0033480078012811D1012000F0E7F931482B
:10412C0000683149314A127841F822002F48007852
:10413C00401C2E4908700020294908702C48007832
:10414C0001281CD1002000F0A7FB002817D125481E
:10415C0000682549254A127811EB820151F8041C9C
:10416C00401AB0F57A7F0AD9204801781E48FFF72B
:10417C0000FE00201E49087000201C49087001BD7B
:10418C003A3608005A1E0020FC1B0020FC6A08006E
:10419C00181C0020006B0800341C0020046B080065
:1041AC00501C0020086B08006C1C00200C6B0800D5
:1041BC00881C0020106B0800000000200403002065
:1041CC00146B0800186B08001C6B0800206B0800AF
:1041DC00246B0800286B0800C81C0020381E002027
:1041EC005C1E0020BC1D0020881A00205B1E0020D5
:1041FC005D1E00207047024600E0521C1378002B15
:10420C00FBD111F8013B137012F8013B002BF8D1D4
:10421C0070470000820707D010F8012B11F8013B02
:10422C00BAB19A42F6D014E002680B689A42A2F135
:10423C00013301BF934313F0803F50F8042F51F822
:10424C00043FF3D010F8012B11F8013B0AB19A424C
:10425C00F8D0D01A70470000A648A749086004207F
:10426C00A64908604FF48070A5490860A548A64986
:10427C000860A6480068C007FBD5A3480068A4499D
:10428C000843A1490860A348A34908609F480068F7
:10429C008007FBD54FF40070A049086042F2110072
:1042AC009F490860994800680007FBD542F212004C
:1042BC009B490860954800680007FBD59948006841
:1042CC0050F4441097490860904800684006FBD5AC
:1042DC00704700209449086000209449086041F21E
:1042EC006F7093490860002092490860032092493E
:1042FC000860704780B58C48006890490968401A7E
:10430C00012817D08E480068401C8D4908608D48E4
:10431C00006850F020008B4908608B480078C0077B
:10432C0008D58A48FCF7D6FE85480068FCF7F2FEF3
:10433C00FCF7E2FE7C48006880490860844800680D
:10434C0030F48010824908608248006830F0040024
:10435C00804908607B48006850F0804079490860CB
:10436C0078480068400001D530BFF9E701BD7A48B4
:10437C007A4908607A487B490860704780B57A486A
:10438C007A4908607A487B4908607B487B49086019
:10439C007B487C49086000207B49086000207B49F1
:1043AC0008607B487B4908607B487C4908604FF477
:1043BC00C0607B4908607FF4C0607A4908605FF098
:1043CC00FF30794908600020784908605FF0D850C8
:1043DC00774908600020774908600020764908601A
:1043EC0000207649086076487649086000207649B6
:1043FC0008607648764908607648774908607748BF
:10440C007749086077487849086000207749086048
:10441C0000207749086077487749086077487849E1
:10442C00086000207749086077487849086076482A
:10443C00774908605FF40010764908606548764952
:10444C00086000207549086000207549086000204C
:10445C007449086074487549086000207449086004
:10446C0000F00BF873480068C00705D435480068A5
:10447C0050F080703349086001BD5FF001106E4947
:10448C00086000206D49086003206D49086041F206
:10449C0070706C49086041F270706B49086042F6AC
:1044AC00E0606A49086042F6E0606949086070475C
:1044BC0010B4684B89B2B3FBF1F31A0001280ED18A
:1044CC00654B1B68DB0705D55F4B1A605308604CC6
:1044DC00236004E05B4B1A6053085C4C236010BCF7
:1044EC007047012801D15D49086070475C4908603C
:1044FC007047000073EDFC2710040E4040040E4082
:10450C0000040E4009F0370020040E4068040E40F1
:10451C0000003701013F072028040E4000080E4020
:10452C0030040E401C040E40BC1D0020C01D002099
:10453C0014E000E018E000E010E000E0C81D0020EE
:10454C00C41D0020A41D0020681D0020C8020020EE
:10455C0070040E4010ED00E00085011054120E4066
:10456C00010000A550120E40FF0123E4000C0E4088
:10457C0000FEDC1B040C0E40D5D755BF100C0E40B2
:10458C002A28AA40140C0E40200C0E40240C0E407D
:10459C0000000188300C0E40D5010034340C0E4064
:1045AC00500C0E40540C0E40600C0E40640C0E402F
:1045BC00700C0E40800C0E40840C0E408C0C0E4087
:1045CC00FF0101B4A00C0E40A40C0E40E7FFBF018C
:1045DC00000E0E4018004000040E0E4066F59F01C0
:1045EC00100E0E40990A4000140E0E40200E0E4084
:1045FC00240E0E4000D0A101300E0E4066251E0088
:10460C00340E0E40500E0E40FFFFDF01540E0E40D4
:10461C00600E0E40640E0E40700E0E40800E0E406A
:10462C00840E0E408C0E0E40E6FF1F00A00E0E40B6
:10463C00A40E0E403C0E0E4000C0084020C00840A6
:10464C0000C208400CC2084010C2084004C2084016
:10465C0008C20840808D5B000CC0084004C00840B4
:10466C0008C0084030B58BB0040002A874490CC9CE
:10467C000CC008390838734800788DF80A00714866
:10468C0040788DF80B006F4880788DF80C0000A8EE
:10469C006D490CC90CC0083908386A4800788DF887
:1046AC0002006848C0788DF80300664800798DF8E0
:1046BC000400644840798DF80500624880798DF8D3
:1046CC00060004A861490CC90CC0083908385D48BB
:1046DC0000788DF812005B48C0798DF813005948AA
:1046EC00007A8DF8140008A859490CC90CC0083977
:1046FC000838544800788DF822005248407A8DF8DA
:10470C00230006A853490CC90CC0083908384D4879
:10471C0000788DF81A004B48807A8DF81B00002524
:10472C004D48006830F002004B490860E4B2002CA0
:10473C0005D100208DF80B0000204249487002A8DA
:10474C00FCF7D3F88DF80D0002A8FBF767FF4FF4C8
:10475C007A714220FCF728F84019050000A8FCF7F4
:10476C00C4F88DF8070000A8FBF758FF4FF47A71D6
:10477C005120FCF719F84019050004A8FCF7B5F80E
:10478C008DF8150004A8FBF749FF4FF47A7143200C
:10479C00FCF70AF84019050008A8FCF7A6F88DF8F4
:1047AC00240008A8FBF73AFF4FF47A714520FBF779
:1047BC00FBFF4019050006A8FCF797F88DF81C00C4
:1047CC0006A8FBF72BFF4FF47A714720FBF7ECFFA1
:1047DC00401905002148FCF77DFCEDB2002D0AD0F4
:1047EC001F48006830F010001D4908601D48FCF798
:1047FC0071FC002009E01C48FCF76CFC16480068B2
:10480C0050F400301449086001200BB030BD80B565
:10481C0000A816490A6802600A4800788DF8020060
:10482C0000A8FCF762F88DF803000B48006850F400
:10483C0080200949086000A8FCF769F802BD000057
:10484C00C06A0800C81C0020C86A0800D06A0800AA
:10485C00D86A0800E06A0800081D0020C403002084
:10486C00A41D0020640400205C040020F86A0800E9
:10487C00012110F01F029140914A40B2430942F8C5
:10488C0023107047012110F01F0291408D4A40B255
:10489C00430942F82310704701008B48085C01283B
:1048AC0001D1012000E00020704701008748085C1E
:1048BC00012801D1012000E0002070470021834A2B
:1048CC008154704738B5002400250020C0B202285E
:1048DC000DDA00217F4AC0B2815400217A4AC0B25D
:1048EC00815400217C4AC0B28154401CEEE7002068
:1048FC00C0B202281ADA7949C0B211EB40014978EA
:10490C00002905D17649C0B251F820100C430BE0B8
:10491C007249C0B211EB40014978802904D1704929
:10492C00C0B251F820100D43401CE1E76D48046003
:10493C006D4805606D48006804006D48006805000E
:10494C000A20FFF79FFF0B20FFF79CFF0A20FFF7C1
:10495C008FFF0B20FFF78CFF0FF2490065490860B1
:10496C006548006850F00200634908606348FCF732
:10497C00B1FB31BD80B55F480068804701BD0200C6
:10498C00D2B2022A0CDA5548D2B210EB420040786F
:10499C00C9B2884204D15248D2B250F8220000E089
:1049AC00002070470020C0B202280ADA4949C0B280
:1049BC00415C002903D00FF20D014E4A1160401CDE
:1049CC00F1E7704770B54E484A4908600026F6B2C8
:1049DC00022E74DA4B484149F6B211EB4601497884
:1049EC0010EB810004003F483C49F6B211EB460144
:1049FC00497810EB810005003648F6B2305C00288F
:104A0C005BD041483B49086019214048F6B210EB95
:104A1C008600FCF7F5FA00284FD03048F6B210F8B3
:104A2C001600002811D12068C0432D49F6B251F868
:104A3C002610084204D001202749F6B2705414E025
:104A4C0000202549F6B270540FE020682449F6B2D4
:104A5C0051F82610084204D001201F49F6B27054B8
:104A6C0003E000201C49F6B270541B48F6B2305CCF
:104A7C001549F6B2715C884214D01748F6B2305C16
:104A8C001149F6B270541048F6B2305C012809D1C5
:104A9C0001200E49F6B270541D4800680C49F6B25C
:104AAC0041F8260000200B49F6B2705428680C49D6
:104ABC00F6B251F8261008432860761C87E770BDC3
:104ACC0000E100E080E200E0421E0020461E0020D3
:104ADC00E81C0020401E0020441E00208C040020F6
:104AEC00E86A0800400C0E40400E0E404C0C0E4084
:104AFC004C0E0E405C1D0020A81D00200004002060
:104B0C00B14908003C0C0E40D1490800E01C0020C3
:104B1C00BC1D00202DE9F14F98B000F061FB0B900B
:104B2C00002000908046DFF8A044DFF8A004017854
:104B3C00012946D0012101702068020CA260616835
:104B4C000B0CE360DFF888542F683F0CAF606D6886
:104B5C002D0CDFF87C74FD601343A360C4F80C804B
:104B6C00CDF8008000250122009F02FA05F61E40B8
:104B7C00AE40374300976D1C102DF5D3009BA360FE
:104B8C00DFF84C34009D6D009D60C3F80C80084329
:104B9C002060C4F80480CDF800800027009902FA48
:104BAC0007F30340BB40194300917F1C102FF5D332
:104BBC000098206000984000DFF814140860C1F8D9
:104BCC00048004A80CA916AA13AB11AD189F04EB12
:104BDC0087070397189EDFF8F8E30EEB860CA646C2
:104BEC00022657F8089BC0F800905CF8089B41F827
:104BFC00049B50F8049B42F8049BDEF80090DEF80E
:104C0C0004A04AEA090943F8049B45F8048B0EF109
:104C1C00080E761EE5D1012000F0E6FADFF8B45359
:104C2C000498002800F0488102900C980190189884
:104C3C0054F820006862189854F8200028601898DE
:104C4C0054F820006865189854F82000686502989C
:104C5C002865019828650298686001986860029838
:104C6C00286201986862019828605FEA884033D412
:104C7C000B9800F0B9FA00BF012000F0B5FA0198CA
:104C8C0068600298286000BF00BF00BF00BF00BF73
:104C9C0000BF00BF00BF00BF00BF02986860019852
:104CAC00286008F10108CC480178491C0170C9B290
:104CBC00022905D3032903D3042924BF0021017041
:104CCC000498E96A0840119011980028CDD020680A
:104CDC006168084313902FE0002013A916AA04ABB7
:104CEC0027464FF0020C4FF4005E3E68D7F8049054
:104CFC0059EA0606D3F8009010D05FEAC97A44BF8F
:104D0C00DFF8D8A22AF810E002D45FEAC67A01D5FF
:104D1C00401CC0B276084FEA5909EED142F8049B08
:104D2C0041F8046B08371B1DBCF1010CDDD10020D0
:104D3C0004900C9005900D900B9800F055FA002003
:104D4C008DF840000021074613AA04AB0A9316AB5A
:104D5C00099311AB08930CAB9D4E079606941668FD
:104D6C00002E7BD00A9E36680F96002E76D0089EB9
:104D7C00D6F800E0CDF838E0079ED6F800C0079EC4
:104D8C00766846EA0C064FF000094FEA471C4FEADA
:104D9C005C0ACDF854A00AE05FEACA7C01D5401C3D
:104DAC00C0B24FEA5E0E4FEA5A0CC2F800C0DDF8F2
:104DBC0024C0CCF800E0D2F800A0BAF1000F32D039
:104DCC00DDF824C0DCF800C0BCF1000F2BD05FEA8A
:104DDC00CE7C04D4E0E7491C760809F10109002EC9
:104DEC00DDD05FEAC67CF7D5C9B28842F3D1D3F8DF
:104DFC0000C04FF0010B0BFA09FB2CEA0B0CC3F8AB
:104E0C0000C0DDF854C05FFA89F90CEB690BDFF8D0
:104E1C00CCC12CF81B801EF0FE0CC0D14FF0010B46
:104E2C008DF840B0BBE70F9EDDF838E026EA0E06A1
:104E3C00DDF828E0CEF80060089E4FF0000EC6F8B2
:104E4C0000E0C2F800E09DF84060012E18D104A8E3
:104E5C0050F82700002828D1F04626E0069E366838
:104E6C00DDF818E0DEF804E04EEA060E03E0009EE2
:104E7C00009E4FEA560ECDF800E0009E002EF6D1B3
:104E8C007F1C069E08360696079E083607961B1D45
:104E9C00089E361D0896099E361D09960A9E361DDB
:104EAC000A96121D022FFFF65AAF012000F09CF952
:104EBC00049800287FF4D9AE059F494E002F55D099
:104ECC00189854F820006862189854F8200028604C
:104EDC00189854F820006865189854F820006865F4
:104EEC0002970D98019002983065019830650298F0
:104EFC00706001987060029830620198706201983D
:104F0C0030605FEA88403FF5E7AE0B9800F06CF933
:104F1C0000BF012000F068F90198706002983060C1
:104F2C0000BF00BF00BF00BF00BF00BF00BF00BF7D
:104F3C0000BF00BF029870600198306008F1010852
:104F4C0025480178491C0170C9B2022905D30329EF
:104F5C0003D3042924BF00210170F06A3840129059
:104F6C00CFD0A068E16808431490E5E60398806808
:104F7C00706203988068306003988068706503984D
:104F8C0080687065189854F820006862189854F876
:104F9C0020002860189854F820006865189854F878
:104FAC0020006865039880687062039880683060A0
:104FBC000398806870650398806870650B9800F0A2
:104FCC0013F919B0BDE8F08FDC1B00205E1E002029
:104FDC00EC1B0020100C0E409B0400209C170020A2
:104FEC00100E0E40F8B504460D460026754F387865
:104FFC0038B1304600F0FCF8761C3878F6B28642B0
:10500C00F7D371480021018104612846BDE8F240C4
:10501C0000F010BB44F204510180002141804FF498
:10502C0088618180704738B50024664D287838B186
:10503C00204600F0DDF8641C2878E4B28442F7D3F3
:10504C0031BD10B55F4800210170604801705E4CA5
:10505C00042060701420207105206071E170142010
:10506C00A070012020700320A07100F0E8FA00204D
:10507C00E06010BD2DE9F04100250027DFF85081DC
:10508C00A8F88C50504E3189411A89B2308108F2FF
:10509C008C025088091889B2C82908D3C82308463D
:1050AC00B0FBF3F007464FF6387303FB0011518049
:1050BC004848027822B1FFB2BA4234BF0022D21B58
:1050CC00027045480068800800F07F70B0F1007FE6
:1050DC0002D0B0F1017F01D100F0C1FAF0680100FB
:1050EC0018BF80470024374E307890B1F9B2204673
:1050FC0000F01DF90543611C3078CCB28442F5D325
:10510C00EDB235B1B8F88C004FF480710843A8F8B3
:10511C008C0040460421002280F88020401C491E4F
:10512C00FAD100203178A1B12C4A137818252B42E2
:10513C000AD008EBD00393F88050012600F0070743
:10514C00BE40354383F88050401C0832C0B28842C0
:10515C00EBD3B8F88C00BDE8F08138B503460020DD
:10516C001E4901EBC3046179E278174D2D5642FAC2
:10517C0005F5EDB2042D38BF0425124A127893427E
:10518C001ED22079C022104213D1084600F03EFAFC
:10519C00C5EBA501814203DA217901F0FB012171F4
:1051AC00694209B281420BDB217941F00401217182
:1051BC0032BD00F0FB0020712A46184600F09EFA22
:1051CC0032BD0000B81B0020A41C00205F1E002074
:1051DC009C170020B91B002040070E409C16002095
:1051EC00EFF310807047704780F31088704770475A
:1051FC0010B5044600F00AF8DFF82404012100F889
:10520C00341000EBC4000F21417010BD30B4DFF836
:10521C00103403EBC0046279A179022503F83050F5
:10522C00DFF80004038843F0020303800020A07021
:10523C0091420ADBDFF8F033D018001D802300F810
:10524C00013B521CD2B29142F9DA30BC7047F0B437
:10525C00DFF8CC1301EBC00081794279DFF8C4335D
:10526C001D88914220DBDFF8C47307EB420407EB87
:10527C004206378890F801C0BCF10A0F0AD2B4F884
:10528C0040C0674538BFACF1010703D3BC4505D21C
:10529C0067467F1CA4F8407045F00805521CB61CEC
:1052AC00A41CD2B29142E4DA1D80F0BC7047F0B578
:1052BC00DFF870231388DFF8704304192779DFF8BF
:1052CC006CC30CEB4005B5F840603CF810E076453B
:1052DC0012D2C8192071D64949798039C0B2C9B2E5
:1052EC00884222D380202071B5F84000401CA5F8DC
:1052FC00400043F0080318E0B6450DD2781A20712F
:10530C00CB490979C1F18001C9B2C0B281420CD339
:10531C0080202071701EEAE7812F24BF781E207137
:10532C00207980283CBF401C20711380F0BD2DE9F2
:10533C00F04F83B081460F4600208DF80800002402
:10534C004846FFF70AFF0646CB46DFF8D48208EB47
:10535C00CB05E878297901F00301491CC8400228E3
:10536C0038BF0220E978091A89B218F83B000128E5
:10537C000DD0022822D0042855D0082800F0068130
:10538C00102800F0BA80202800F01D813AE1012499
:10539C00A44E30884FF40071084330804846FFF724
:1053AC0056FF6878401E6870C0B210B94846FFF7C7
:1053BC002DFF9D489E498978417023E1287940074B
:1053CC000CD56879984940180471202008F83B00E6
:1053DC000124944E308840F4805012E1002E48BFD6
:1053EC000026B6B2E878864206DB042008F83B00BB
:1053FC00AC7001248B4E01E1002F00F003818A4830
:10540C004078002840F0FE8095F806906E79B14502
:10541C00C0F2F88039463046FFF749FF761CF6B2E9
:10542C00B145F7DAEEE0300048BF002080B2E978F1
:10543C0088425EDBDFF8F8A17B489AF802104170D5
:10544C00A878401CA8702879C0F3C200019070B3F2
:10545C00002775480078012829DB5F451ED008EB32
:10546C00C70000900079C0F3C2000199C9B288420C
:10547C0014D13846FFF771FEE978711A009AD27888
:10548C00801A814204DAAC7001208DF8080005E026
:10549C0018F837001028F6D00828F4D0781CC7B2BA
:1054AC00614800788742D8DB9DF8080040B99AF82B
:1054BC00010028B101245B4E308840F4006030803C
:1054CC00A8789AF801108842C0F09C80554E30881C
:1054DC0040F003003080102008F83B00002068707A
:1054EC002879C021084200F08D80484600F036FA39
:1054FC0088E04846FFF78AFE84E0287940070ED5FD
:10550C0068794949401880210171202008F83B0036
:10551C000124444E308840F48050308049E73000FC
:10552C0048BF00203F4E328880B2884206DA0820FD
:10553C0008F83B00012442F48060EEE742F00100E1
:10554C003080A878DFF8E8B09BF8011088423CBFA7
:10555C00401CA8702879C02108421CBF484600F0A6
:10556C0023F99BF8030000283FF423AF69788142AC
:10557C003CBF78186870FFF41CAF4846FFF738FE44
:10558C00012430884FF400710843C6E72648284AA6
:10559C0092784270A8780028ABD0300048BF002029
:1055AC00204E328880B28142BEBF102008F83B00EA
:1055BC0042F00100A4BF012442F480603080A8783E
:1055CC00401EA8701EE06879174940180179491CE3
:1055DC0001712879400705D408068AD5102008F8EF
:1055EC003B000FE00F4E12488079C9B2814204D3C0
:1055FC004846FFF7FDFD0124ECE60124308840F419
:10560C0080603080204603B0BDE8F08F074901EB85
:10561C004002B2F9402031F91000101A00B2704764
:10562C009C16002028180020B81B00209C17002076
:10563C00A41C002080B5010018BF804701BD134891
:10564C0000F110010222002340F8043B40F8043B17
:10565C0041F8043B41F8043B521EF5D1704710B59C
:10566C000A4C2068A168084305D009480168080065
:10567C001CBF002088476068E168084305D00448D7
:10568C00016808001CBF0120884710BDDC1B0020EE
:10569C00B41C00202DE9F041069C079DCF4E3778B5
:1056AC00DFF83CC30CEBC70C8CF8033000238CF8F0
:1056BC000430CC4B93F800E08CF807E09CF80480A5
:1056CC0062F3C5088CF804808CF805008CF8061081
:1056DC00C54800EB8E00690181700EF10100187055
:1056EC009CF8040064F301008CF8040040F0800086
:1056FC008CF80400781C3070BDE8F08138B5044695
:10570C000846154600F036F9B748B0F920100A469D
:10571C00B0F922309342B8BF1A46B0F92400904237
:10572C00B8BF024659184018694209B200B281420A
:10573C0006DBAB4901EBC4010B7943F004030B719D
:10574C00A2EB8201081800B232BD0023521C49B9E9
:10575C004FF6FF73D2B20AB14FF6FF7398B270478F
:10576C00521E40005FEA004C02D4D2B2002AF7D19C
:10577C005FEA014C12D5D2B2002AEFD05FEA034C9B
:10578C00EAD45B00521E80B289B2884224BF401A10
:10579C005B1C4908D2B2002AF0D1DFE7521C490049
:1057AC005FEA014CFAD5E6E72DE9F84F00268C4963
:1057BC0001EBC00999F807A0DFF82CB20BEB8A07B4
:1057CC00B878400900F1010899F8050000F0D2F80A
:1057DC00BBF92420BBF92210BBF920408C420BDB17
:1057EC00914204DB4FF48055084613460BE000252C
:1057FC0020460B46144606E0A242F3DB4FF400555C
:10580C00104623460C460C222118A1EB430189B209
:10581C00C01A80B2FFF799FF401985B242F6FF70AB
:10582C00ADF800004FF4405099F8049009F0C00115
:10583C00802916D1A5F2672042F63231884228BF62
:10584C00012608D240F23370854223BF40F23270F9
:10585C00281A85B2002542F29B10ADF80000002EEC
:10586C007AD14FF480745FFA88F2082A05D2C2F11B
:10587C000801C9B26408491EFCD121464E1E052AF6
:10588C0038BF490002D3072A28BF49080022FFF776
:10589C005CFF09F0C001402916D13BF82A10B1F584
:1058AC00C05F08D3A1F5C05189B28D420CDA05F561
:1058BC0040518DB208E001F5C05292B2AA42BCBF71
:1058CC0001F540512BF82A10B978CA0705D501F01B
:1058DC00FE00B8700021002004E0890746BF014695
:1058EC00002000213BF82A2051188D42A4BFB87823
:1058FC0000F0FD0005DA4019824205DBB87840F073
:10590C000200B8702BF82A503BF82A00B0F5405F23
:10591C0024BFA0F540502BF82A0000222146BDF8E8
:10592C000000FFF712FF002201463BF82A00FFF7A8
:10593C000CFF0146F0B2884238BF01462B48504458
:10594C0090F88420CBB29A4206D080F88410284874
:10595C00018841F004010180BDE8F18F204901EB81
:10596C00C000C079204901EB8000817841F0010131
:10597C0081707047F8B504461C4E06EB440505F2E1
:10598C0040070C22B5F840107888FFF7DEFE06EBD6
:10599C0044060C2201467088FFF7D7FEADF80000D4
:1059AC000C22B5F84010B888FFF7CFFE01460C2248
:1059BC00B088FFF7CAFE0646ADF802600A4F2046D3
:1059CC00FFF724FE3884B5F84000BDF90010411AE9
:1059DC007984801BB884F1BD00000000B81B002046
:1059EC009C1600205F1E0020B81A00209C17002077
:1059FC00281800200000000000000004040404002B
:105A0C0000040A0A0A000000000A0A1F0A1F0A0AF8
:105A1C00041E050E140F04031308040219180609BA
:105A2C000502050916060402000000000804020223
:105A3C00020408020408080804020004150E1504E8
:105A4C00000004041F04040000000000060402000F
:105A5C0000001F00000000000000000606001008F7
:105A6C00040201000E11191513110E04060404048E
:105A7C00040E0E11100804021F1F08040810110E4A
:105A8C00080C0A091F08081F010F1010110E0C0238
:105A9C00010F11110E1F1008040202020E11110E3B
:105AAC0011110E0E11111E10080600060600060636
:105ABC0000000606000604020804020102040800A5
:105ACC00001F001F0000020408100804020E111031
